:0D01B20048656C6C6F526F626F636F6E007A
:10015E0078087C007D007BFF7A0179B27E007F0DEE
:0E016E001200D37B007A00790812013B80F565
:0901E100D290D291C290C2912289
:0701EA00C290D291D29022D5
:02011200AD0737
:10011400E4FB74807E00A803088006CEA2E713CE19
:1001240013D8F8FFEDF582EF558224FF9290D29117
:06013400C2910BBB08DCC8
:01013A0022A2
:10017C00E4FFD290FED29130900D7480A8060880D6
:0D018C0002C313D8FC4207C2910EBE08E862
:010199002243
:0A01D700EF24FF9290D291C2912212
:0B01BF00D290D291A290E433FFC291D5
:0101CA002212
:10019A008F181201E17F401201121201BFAF18122B
:0801AA0001121201BF0201EA7B
:10013B008B158A168917AB15AA16A9171200F9FF8A
:10014B00601012019A74012517F517E43516F51690
:03015B0080E4221B
:030000000201CB2F
:0C01CB00787FE4F6D8FD75811802015E13
:10000300E709F608DFFA8046E709F208DFFA803EDF
:1000130088828C83E709F0A3DFFA8032E309F608CC
:10002300DFFA8078E309F208DFFA807088828C8334
:10003300E309F0A3DFFA806489828A83E0A3F608E8
:10004300DFFA805889828A83E0A3F208DFFA804CC2
:1000530080D280FA80C680D4806980F28033801099
:1000630080A680EA809A80A880DA80E280CA803302
:1000730089828A83ECFAE493A3C8C582C8CCC5837A
:10008300CCF0A3C8C582C8CCC583CCDFE9DEE7804A
:100093000D89828A83E493A3F608DFF9ECFAA9F0C9
:1000A300EDFB2289828A83ECFAE0A3C8C582C8CC1F
:1000B300C583CCF0A3C8C582C8CCC583CCDFEADE38
:1000C300E880DB89828A83E493A3F208DFF980CC9A
:1000D30088F0EF60010E4E60C388F0ED2402B40493
:1000E3000050B9F582EB2402B4040050AF2323453A
:0600F3008223900053730C
:1000F900BB010689828A83E0225002E722BBFE0205
:09010900E32289828A83E4932237
:00000001FF
